{
  "_format": "hh-sol-artifact-1",
  "contractName": "BasicDutchAuction",
  "sourceName": "contracts/BasicDutchAuction.sol",
  "abi": [
    {
      "inputs": [
        {
          "internalType": "uint256",
          "name": "_reservePrice",
          "type": "uint256"
        },
        {
          "internalType": "uint256",
          "name": "_numBlocksAuctionOpen",
          "type": "uint256"
        },
        {
          "internalType": "uint256",
          "name": "_offerPriceDecrement",
          "type": "uint256"
        }
      ],
      "stateMutability": "nonpayable",
      "type": "constructor"
    },
    {
      "inputs": [],
      "name": "auctionEndBlock",
      "outputs": [
        {
          "internalType": "uint256",
          "name": "",
          "type": "uint256"
        }
      ],
      "stateMutability": "view",
      "type": "function"
    },
    {
      "inputs": [],
      "name": "auctionEnded",
      "outputs": [
        {
          "internalType": "bool",
          "name": "",
          "type": "bool"
        }
      ],
      "stateMutability": "view",
      "type": "function"
    },
    {
      "inputs": [],
      "name": "bid",
      "outputs": [
        {
          "internalType": "address",
          "name": "",
          "type": "address"
        }
      ],
      "stateMutability": "payable",
      "type": "function"
    },
    {
      "inputs": [],
      "name": "currentPrice",
      "outputs": [
        {
          "internalType": "uint256",
          "name": "",
          "type": "uint256"
        }
      ],
      "stateMutability": "view",
      "type": "function"
    },
    {
      "inputs": [],
      "name": "getInfo",
      "outputs": [],
      "stateMutability": "nonpayable",
      "type": "function"
    },
    {
      "inputs": [],
      "name": "initialPrice",
      "outputs": [
        {
          "internalType": "uint256",
          "name": "",
          "type": "uint256"
        }
      ],
      "stateMutability": "view",
      "type": "function"
    },
    {
      "inputs": [],
      "name": "numBlocksActionOpen",
      "outputs": [
        {
          "internalType": "uint256",
          "name": "",
          "type": "uint256"
        }
      ],
      "stateMutability": "view",
      "type": "function"
    },
    {
      "inputs": [],
      "name": "offerPriceDecrement",
      "outputs": [
        {
          "internalType": "uint256",
          "name": "",
          "type": "uint256"
        }
      ],
      "stateMutability": "view",
      "type": "function"
    },
    {
      "inputs": [],
      "name": "reservePrice",
      "outputs": [
        {
          "internalType": "uint256",
          "name": "",
          "type": "uint256"
        }
      ],
      "stateMutability": "view",
      "type": "function"
    },
    {
      "inputs": [],
      "name": "seller",
      "outputs": [
        {
          "internalType": "address payable",
          "name": "",
          "type": "address"
        }
      ],
      "stateMutability": "view",
      "type": "function"
    },
    {
      "inputs": [],
      "name": "winner",
      "outputs": [
        {
          "internalType": "address payable",
          "name": "",
          "type": "address"
        }
      ],
      "stateMutability": "view",
      "type": "function"
    },
    {
      "inputs": [],
      "name": "winningBidAmount",
      "outputs": [
        {
          "internalType": "uint256",
          "name": "",
          "type": "uint256"
        }
      ],
      "stateMutability": "view",
      "type": "function"
    }
  ],
  "bytecode": "0x60806040523480156200001157600080fd5b5060405162000cd138038062000cd183398181016040528101906200003791906200013e565b8260008190555081600181905550806002819055506001546002546200005e9190620001c9565b6000546200006d919062000214565b60038190555060035460048190555033600560006101000a81548173ffffffffffffffffffffffffffffffffffffffff021916908373ffffffffffffffffffffffffffffffffffffffff1602179055504360088190555060015443620000d4919062000214565b6007819055506000600a60006101000a81548160ff0219169083151502179055505050506200024f565b600080fd5b6000819050919050565b620001188162000103565b81146200012457600080fd5b50565b60008151905062000138816200010d565b92915050565b6000806000606084860312156200015a5762000159620000fe565b5b60006200016a8682870162000127565b93505060206200017d8682870162000127565b9250506040620001908682870162000127565b9150509250925092565b7f4e487b7100000000000000000000000000000000000000000000000000000000600052601160045260246000fd5b6000620001d68262000103565b9150620001e38362000103565b9250828202620001f38162000103565b915082820484148315176200020d576200020c6200019a565b5b5092915050565b6000620002218262000103565b91506200022e8362000103565b92508282019050808211156200024957620002486200019a565b5b92915050565b610a72806200025f6000396000f3fe6080604052600436106100a75760003560e01c80635a9b0b89116100645780635a9b0b89146101a157806386433374146101b85780639d1b464a146101e3578063d3642a881461020e578063db2e1eed14610239578063dfbf53ae14610264576100a7565b806307d52fa8146100ac57806308551a53146100d75780631998aeef146101025780631d0806ae1461012057806321e41eeb1461014b578063559405ee14610176575b600080fd5b3480156100b857600080fd5b506100c161028f565b6040516100ce9190610733565b60405180910390f35b3480156100e357600080fd5b506100ec610295565b6040516100f9919061078f565b60405180910390f35b61010a6102bb565b60405161011791906107cb565b60405180910390f35b34801561012c57600080fd5b5061013561063b565b6040516101429190610733565b60405180910390f35b34801561015757600080fd5b50610160610641565b60405161016d9190610733565b60405180910390f35b34801561018257600080fd5b5061018b610647565b6040516101989190610733565b60405180910390f35b3480156101ad57600080fd5b506101b661064d565b005b3480156101c457600080fd5b506101cd610657565b6040516101da9190610801565b60405180910390f35b3480156101ef57600080fd5b506101f861066a565b6040516102059190610733565b60405180910390f35b34801561021a57600080fd5b50610223610670565b6040516102309190610733565b60405180910390f35b34801561024557600080fd5b5061024e610676565b60405161025b9190610733565b60405180910390f35b34801561027057600080fd5b5061027961067c565b604051610286919061078f565b60405180910390f35b60075481565b600560009054906101000a900473ffffffffffffffffffffffffffffffffffffffff1681565b6000600a60009054906101000a900460ff1680156103285750600073ffffffffffffffffffffffffffffffffffffffff16600660009054906101000a900473ffffffffffffffffffffffffffffffffffffffff1673ffffffffffffffffffffffffffffffffffffffff1614155b80156103825750600660009054906101000a900473ffffffffffffffffffffffffffffffffffffffff1673ffffffffffffffffffffffffffffffffffffffff163373ffffffffffffffffffffffffffffffffffffffff1614155b156103d55760003390508073ffffffffffffffffffffffffffffffffffffffff166108fc479081150290604051600060405180830381858888f193505050501580156103d2573d6000803e3d6000fd5b50505b600a60009054906101000a900460ff1615610425576040517f08c379a000000000000000000000000000000000000000000000000000000000815260040161041c90610879565b60405180910390fd5b6007544310610469576040517f08c379a000000000000000000000000000000000000000000000000000000000815260040161046090610879565b60405180910390fd5b6104716106a2565b6004543410156104b6576040517f08c379a00000000000000000000000000000000000000000000000000000000081526004016104ad9061090b565b60405180910390fd5b600073ffffffffffffffffffffffffffffffffffffffff16600660009054906101000a900473ffffffffffffffffffffffffffffffffffffffff1673ffffffffffffffffffffffffffffffffffffffff1614610547576040517f08c379a000000000000000000000000000000000000000000000000000000000815260040161053e90610977565b60405180910390fd5b33600660006101000a81548173ffffffffffffffffffffffffffffffffffffffff021916908373ffffffffffffffffffffffffffffffffffffffff160217905550600560009054906101000a900473ffffffffffffffffffffffffffffffffffffffff1673ffffffffffffffffffffffffffffffffffffffff166108fc349081150290604051600060405180830381858888f193505050501580156105f0573d6000803e3d6000fd5b50346009819055506001600a60006101000a81548160ff021916908315150217905550600660009054906101000a900473ffffffffffffffffffffffffffffffffffffffff16905090565b60035481565b60015481565b60095481565b6106556106a2565b565b600a60009054906101000a900460ff1681565b60045481565b60025481565b60005481565b600660009054906101000a900473ffffffffffffffffffffffffffffffffffffffff1681565b60075443106106cb576001600a60006101000a81548160ff0219169083151502179055506106f4565b6106d36106f6565b6002546106e091906109c6565b6003546106ed9190610a08565b6004819055505b565b6000600854610703610712565b61070d9190610a08565b905090565b600043905090565b6000819050919050565b61072d8161071a565b82525050565b60006020820190506107486000830184610724565b92915050565b600073ffffffffffffffffffffffffffffffffffffffff82169050919050565b60006107798261074e565b9050919050565b6107898161076e565b82525050565b60006020820190506107a46000830184610780565b92915050565b60006107b58261074e565b9050919050565b6107c5816107aa565b82525050565b60006020820190506107e060008301846107bc565b92915050565b60008115159050919050565b6107fb816107e6565b82525050565b600060208201905061081660008301846107f2565b92915050565b600082825260208201905092915050565b7f41756374696f6e2068617320616c726561647920656e6465642e000000000000600082015250565b6000610863601a8361081c565b915061086e8261082d565b602082019050919050565b6000602082019050818103600083015261089281610856565b9050919050565b7f4269642076616c7565206d7573742062652067726561746572207468616e206f60008201527f7220657175616c20746f207468652063757272656e742070726963652e000000602082015250565b60006108f5603d8361081c565b915061090082610899565b604082019050919050565b60006020820190508181036000830152610924816108e8565b9050919050565b7f41756374696f6e2068617320616c7265616479206265656e20776f6e00000000600082015250565b6000610961601c8361081c565b915061096c8261092b565b602082019050919050565b6000602082019050818103600083015261099081610954565b9050919050565b7f4e487b7100000000000000000000000000000000000000000000000000000000600052601160045260246000fd5b60006109d18261071a565b91506109dc8361071a565b92508282026109ea8161071a565b91508282048414831517610a0157610a00610997565b5b5092915050565b6000610a138261071a565b9150610a1e8361071a565b9250828203905081811115610a3657610a35610997565b5b9291505056fea26469706673582212200fa8beb6cc84791c37b470d7545583f1a13d7cb39cef720dc38a8b1f261adde064736f6c63430008110033",
  "linkReferences": {},
  "deployedLinkReferences": {}
}